{
  "contractName": "LastWillManager",
  "abi": [
    {
      "constant": true,
      "inputs": [
        {
          "name": "",
          "type": "uint256"
        }
      ],
      "name": "testamentosDirs",
      "outputs": [
        {
          "name": "",
          "type": "address"
        }
      ],
      "payable": false,
      "stateMutability": "view",
      "type": "function",
      "signature": "0x44a24e9a"
    },
    {
      "constant": true,
      "inputs": [
        {
          "name": "",
          "type": "address"
        }
      ],
      "name": "testamentos",
      "outputs": [
        {
          "name": "direccion",
          "type": "address"
        },
        {
          "name": "nombre",
          "type": "string"
        },
        {
          "name": "apellido1",
          "type": "string"
        },
        {
          "name": "apellido2",
          "type": "string"
        },
        {
          "name": "dni",
          "type": "string"
        },
        {
          "name": "passwordHash",
          "type": "string"
        },
        {
          "name": "ipfsHash",
          "type": "string"
        }
      ],
      "payable": false,
      "stateMutability": "view",
      "type": "function",
      "signature": "0x4b94e792"
    },
    {
      "constant": true,
      "inputs": [],
      "name": "nTestamentos",
      "outputs": [
        {
          "name": "",
          "type": "uint256"
        }
      ],
      "payable": false,
      "stateMutability": "view",
      "type": "function",
      "signature": "0xaec823cc"
    },
    {
      "constant": true,
      "inputs": [],
      "name": "superusuario",
      "outputs": [
        {
          "name": "",
          "type": "address"
        }
      ],
      "payable": false,
      "stateMutability": "view",
      "type": "function",
      "signature": "0xbc72d83e"
    },
    {
      "inputs": [],
      "payable": false,
      "stateMutability": "nonpayable",
      "type": "constructor",
      "signature": "constructor"
    },
    {
      "anonymous": false,
      "inputs": [
        {
          "indexed": false,
          "name": "direccion",
          "type": "address"
        },
        {
          "indexed": false,
          "name": "nombre",
          "type": "string"
        },
        {
          "indexed": false,
          "name": "apellido1",
          "type": "string"
        },
        {
          "indexed": false,
          "name": "apellido2",
          "type": "string"
        },
        {
          "indexed": false,
          "name": "dni",
          "type": "string"
        },
        {
          "indexed": false,
          "name": "passwordHash",
          "type": "string"
        }
      ],
      "name": "TestamentoCreado",
      "type": "event",
      "signature": "0x8eb0c16d1c8d18dadff903f5dcc64c93dee72f69f723e2324212cef3a77747d2"
    },
    {
      "anonymous": false,
      "inputs": [
        {
          "indexed": false,
          "name": "superusuario",
          "type": "address"
        }
      ],
      "name": "DireccionSuperusuario",
      "type": "event",
      "signature": "0xbffb473ec61064d3bdb534e6c1ac723854d41211bd7fd94d7e71de901cad7567"
    },
    {
      "anonymous": false,
      "inputs": [
        {
          "indexed": false,
          "name": "direccion",
          "type": "address"
        },
        {
          "indexed": false,
          "name": "nombre",
          "type": "string"
        }
      ],
      "name": "NombreCambiado",
      "type": "event",
      "signature": "0x42f281e2f8ac26786d8864be40b4e252061c8a8c54fff0abe449e702256001b6"
    },
    {
      "anonymous": false,
      "inputs": [
        {
          "indexed": false,
          "name": "direccion",
          "type": "address"
        },
        {
          "indexed": false,
          "name": "apellido1",
          "type": "string"
        }
      ],
      "name": "Apellido1Cambiado",
      "type": "event",
      "signature": "0x9cf9111af77b4bc6e91a208b1c86ee37141c634a45199e4cfc571e5294888d1c"
    },
    {
      "anonymous": false,
      "inputs": [
        {
          "indexed": false,
          "name": "direccion",
          "type": "address"
        },
        {
          "indexed": false,
          "name": "apellido2",
          "type": "string"
        }
      ],
      "name": "Apellido2Cambiado",
      "type": "event",
      "signature": "0x964ccd2829dee52d493ac495d4531e68ef224a5348f36216e17e0fa36db2e4c8"
    },
    {
      "anonymous": false,
      "inputs": [
        {
          "indexed": false,
          "name": "direccion",
          "type": "address"
        },
        {
          "indexed": false,
          "name": "dni",
          "type": "string"
        }
      ],
      "name": "DNICambiado",
      "type": "event",
      "signature": "0x31c3b24a02ac2e14dcfca01ab3109b57c0aab3af8cad738674fc2a272fb59faa"
    },
    {
      "anonymous": false,
      "inputs": [
        {
          "indexed": false,
          "name": "direccion",
          "type": "address"
        },
        {
          "indexed": false,
          "name": "ipfsHash",
          "type": "string"
        }
      ],
      "name": "IPFSHashCambiado",
      "type": "event",
      "signature": "0xfd58fbf8409d07ce4aa41e46916c18604c47e16519319df2076ca14cc6122c5d"
    },
    {
      "anonymous": false,
      "inputs": [
        {
          "indexed": false,
          "name": "posicion",
          "type": "uint256"
        }
      ],
      "name": "TestamentoYaExistente",
      "type": "event",
      "signature": "0xec78315fc9f306176b3bf3c3ce63de32e3aa1d148ec2e2e93257e3c98f2d8294"
    },
    {
      "constant": false,
      "inputs": [
        {
          "name": "_nom",
          "type": "string"
        },
        {
          "name": "_apell1",
          "type": "string"
        },
        {
          "name": "_apell2",
          "type": "string"
        },
        {
          "name": "_dni",
          "type": "string"
        },
        {
          "name": "_pwHash",
          "type": "string"
        }
      ],
      "name": "nuevoTestamento",
      "outputs": [],
      "payable": false,
      "stateMutability": "nonpayable",
      "type": "function",
      "signature": "0xfd591a8a"
    },
    {
      "constant": true,
      "inputs": [],
      "name": "isRegistrado",
      "outputs": [
        {
          "name": "",
          "type": "bool"
        }
      ],
      "payable": false,
      "stateMutability": "view",
      "type": "function",
      "signature": "0x06ece0c0"
    },
    {
      "constant": true,
      "inputs": [
        {
          "name": "_dni",
          "type": "string"
        }
      ],
      "name": "buscarTestamento",
      "outputs": [
        {
          "name": "",
          "type": "address"
        }
      ],
      "payable": false,
      "stateMutability": "view",
      "type": "function",
      "signature": "0x3754be54"
    },
    {
      "constant": true,
      "inputs": [
        {
          "name": "_pwHash",
          "type": "string"
        }
      ],
      "name": "autenticar",
      "outputs": [
        {
          "name": "",
          "type": "bool"
        }
      ],
      "payable": false,
      "stateMutability": "view",
      "type": "function",
      "signature": "0x2ef810db"
    },
    {
      "constant": false,
      "inputs": [
        {
          "name": "_nuevo",
          "type": "string"
        }
      ],
      "name": "cambiarNombre",
      "outputs": [],
      "payable": false,
      "stateMutability": "nonpayable",
      "type": "function",
      "signature": "0x1dd45606"
    },
    {
      "constant": false,
      "inputs": [
        {
          "name": "_nuevo",
          "type": "string"
        }
      ],
      "name": "cambiarApellido1",
      "outputs": [],
      "payable": false,
      "stateMutability": "nonpayable",
      "type": "function",
      "signature": "0x78081bc8"
    },
    {
      "constant": false,
      "inputs": [
        {
          "name": "_nuevo",
          "type": "string"
        }
      ],
      "name": "cambiarApellido2",
      "outputs": [],
      "payable": false,
      "stateMutability": "nonpayable",
      "type": "function",
      "signature": "0x0934bcd8"
    },
    {
      "constant": false,
      "inputs": [
        {
          "name": "_nuevo",
          "type": "string"
        }
      ],
      "name": "cambiarDNI",
      "outputs": [],
      "payable": false,
      "stateMutability": "nonpayable",
      "type": "function",
      "signature": "0x67138706"
    },
    {
      "constant": false,
      "inputs": [
        {
          "name": "_nuevo",
          "type": "string"
        }
      ],
      "name": "cambiarIPFSHash",
      "outputs": [],
      "payable": false,
      "stateMutability": "nonpayable",
      "type": "function",
      "signature": "0x4cce06d3"
    },
    {
      "constant": true,
      "inputs": [
        {
          "name": "_s1",
          "type": "string"
        },
        {
          "name": "_s2",
          "type": "string"
        }
      ],
      "name": "compararStrings",
      "outputs": [
        {
          "name": "",
          "type": "bool"
        }
      ],
      "payable": false,
      "stateMutability": "pure",
      "type": "function",
      "signature": "0x97ea2878"
    }
  ],
  "bytecode": "0x608060405234801561001057600080fd5b5060038054600160a060020a03191633179081905560408051600160a060020a03929092168252517fbffb473ec61064d3bdb534e6c1ac723854d41211bd7fd94d7e71de901cad75679181900360200190a1611d67806100716000396000f3fe6080604052600436106100cf5763ffffffff7c010000000000000000000000000000000000000000000000000000000060003504166306ece0c081146100d45780630934bcd8146100fd5780631dd45606146101b25780632ef810db146102655780633754be541461031857806344a24e9a146103e75780634b94e792146104115780634cce06d3146106d3578063671387061461078657806378081bc81461083957806397ea2878146108ec578063aec823cc14610a26578063bc72d83e14610a4d578063fd591a8a14610a62575b600080fd5b3480156100e057600080fd5b506100e9610d31565b604080519115158252519081900360200190f35b34801561010957600080fd5b506101b06004803603602081101561012057600080fd5b81019060208101813564010000000081111561013b57600080fd5b82018360208201111561014d57600080fd5b8035906020019184600183028401116401000000008311171561016f57600080fd5b91908080601f016020809104026020016040519081016040528093929190818152602001838380828437600092019190915250929550610d84945050505050565b005b3480156101be57600080fd5b506101b0600480360360208110156101d557600080fd5b8101906020810181356401000000008111156101f057600080fd5b82018360208201111561020257600080fd5b8035906020019184600183028401116401000000008311171561022457600080fd5b91908080601f016020809104026020016040519081016040528093929190818152602001838380828437600092019190915250929550610e61945050505050565b34801561027157600080fd5b506100e96004803603602081101561028857600080fd5b8101906020810181356401000000008111156102a357600080fd5b8201836020820111156102b557600080fd5b803590602001918460018302840111640100000000831117156102d757600080fd5b91908080601f016020809104026020016040519081016040528093929190818152602001838380828437600092019190915250929550610f3a945050505050565b34801561032457600080fd5b506103cb6004803603602081101561033b57600080fd5b81019060208101813564010000000081111561035657600080fd5b82018360208201111561036857600080fd5b8035906020019184600183028401116401000000008311171561038a57600080fd5b91908080601f01602080910402602001604051908101604052809392919081815260200183838082843760009201919091525092955061102c945050505050565b60408051600160a060020a039092168252519081900360200190f35b3480156103f357600080fd5b506103cb6004803603602081101561040a57600080fd5b5035611124565b34801561041d57600080fd5b506104446004803603602081101561043457600080fd5b5035600160a060020a031661114c565b6040518088600160a060020a0316600160a060020a0316815260200180602001806020018060200180602001806020018060200187810387528d818151815260200191508051906020019080838360005b838110156104ad578181015183820152602001610495565b50505050905090810190601f1680156104da5780820380516001836020036101000a031916815260200191505b5087810386528c5181528c516020918201918e019080838360005b8381101561050d5781810151838201526020016104f5565b50505050905090810190601f16801561053a5780820380516001836020036101000a031916815260200191505b5087810385528b5181528b516020918201918d019080838360005b8381101561056d578181015183820152602001610555565b50505050905090810190601f16801561059a5780820380516001836020036101000a031916815260200191505b5087810384528a5181528a516020918201918c019080838360005b838110156105cd5781810151838201526020016105b5565b50505050905090810190601f1680156105fa5780820380516001836020036101000a031916815260200191505b5087810383528951815289516020918201918b019080838360005b8381101561062d578181015183820152602001610615565b50505050905090810190601f16801561065a5780820380516001836020036101000a031916815260200191505b5087810382528851815288516020918201918a019080838360005b8381101561068d578181015183820152602001610675565b50505050905090810190601f1680156106ba5780820380516001836020036101000a031916815260200191505b509d505050505050505050505050505060405180910390f35b3480156106df57600080fd5b506101b0600480360360208110156106f657600080fd5b81019060208101813564010000000081111561071157600080fd5b82018360208201111561072357600080fd5b8035906020019184600183028401116401000000008311171561074557600080fd5b91908080601f0160208091040260200160405190810160405280939291908181526020018383808284376000920191909152509295506114cf945050505050565b34801561079257600080fd5b506101b0600480360360208110156107a957600080fd5b8101906020810181356401000000008111156107c457600080fd5b8201836020820111156107d657600080fd5b803590602001918460018302840111640100000000831117156107f857600080fd5b91908080601f0160208091040260200160405190810160405280939291908181526020018383808284376000920191909152509295506115a8945050505050565b34801561084557600080fd5b506101b06004803603602081101561085c57600080fd5b81019060208101813564010000000081111561087757600080fd5b82018360208201111561088957600080fd5b803590602001918460018302840111640100000000831117156108ab57600080fd5b91908080601f016020809104026020016040519081016040528093929190818152602001838380828437600092019190915250929550611681945050505050565b3480156108f857600080fd5b506100e96004803603604081101561090f57600080fd5b81019060208101813564010000000081111561092a57600080fd5b82018360208201111561093c57600080fd5b8035906020019184600183028401116401000000008311171561095e57600080fd5b91908080601f01602080910402602001604051908101604052809392919081815260200183838082843760009201919091525092959493602081019350359150506401000000008111156109b157600080fd5b8201836020820111156109c357600080fd5b803590602001918460018302840111640100000000831117156109e557600080fd5b91908080601f01602080910402602001604051908101604052809392919081815260200183838082843760009201919091525092955061175a945050505050565b348015610a3257600080fd5b50610a3b611841565b60408051918252519081900360200190f35b348015610a5957600080fd5b506103cb611847565b348015610a6e57600080fd5b506101b0600480360360a0811015610a8557600080fd5b810190602081018135640100000000811115610aa057600080fd5b820183602082011115610ab257600080fd5b80359060200191846001830284011164010000000083111715610ad457600080fd5b91908080601f0160208091040260200160405190810160405280939291908181526020018383808284376000920191909152509295949360208101935035915050640100000000811115610b2757600080fd5b820183602082011115610b3957600080fd5b80359060200191846001830284011164010000000083111715610b5b57600080fd5b91908080601f0160208091040260200160405190810160405280939291908181526020018383808284376000920191909152509295949360208101935035915050640100000000811115610bae57600080fd5b820183602082011115610bc057600080fd5b80359060200191846001830284011164010000000083111715610be257600080fd5b91908080601f0160208091040260200160405190810160405280939291908181526020018383808284376000920191909152509295949360208101935035915050640100000000811115610c3557600080fd5b820183602082011115610c4757600080fd5b80359060200191846001830284011164010000000083111715610c6957600080fd5b91908080601f0160208091040260200160405190810160405280939291908181526020018383808284376000920191909152509295949360208101935035915050640100000000811115610cbc57600080fd5b820183602082011115610cce57600080fd5b80359060200191846001830284011164010000000083111715610cf057600080fd5b91908080601f016020809104026020016040519081016040528093929190818152602001838380828437600092019190915250929550611856945050505050565b6000805b600054811015610d7b576001805482908110610d4d57fe5b600091825260209091200154600160a060020a0316331415610d73576001915050610d81565b600101610d35565b50600090505b90565b7f964ccd2829dee52d493ac495d4531e68ef224a5348f36216e17e0fa36db2e4c833826040518083600160a060020a0316600160a060020a0316815260200180602001828103825283818151815260200191508051906020019080838360005b83811015610dfc578181015183820152602001610de4565b50505050905090810190601f168015610e295780820380516001836020036101000a031916815260200191505b50935050505060405180910390a13360009081526002602090815260409091208251610e5d92600390920191840190611ca3565b5050565b7f42f281e2f8ac26786d8864be40b4e252061c8a8c54fff0abe449e702256001b633826040518083600160a060020a0316600160a060020a0316815260200180602001828103825283818151815260200191508051906020019080838360005b83811015610ed9578181015183820152602001610ec1565b50505050905090810190601f168015610f065780820380516001836020036101000a031916815260200191505b50935050505060405180910390a13360009081526002602090815260409091208251610e5d92600190920191840190611ca3565b6000805b600054811015611025576001805482908110610f5657fe5b600091825260209091200154600160a060020a031633141561101d5733600090815260026020818152604092839020600501805484516001821615610100026000190190911693909304601f810183900483028401830190945283835261101593909183018282801561100a5780601f10610fdf5761010080835404028352916020019161100a565b820191906000526020600020905b815481529060010190602001808311610fed57829003601f168201915b50505050508461175a565b915050611027565b600101610f3e565b505b919050565b6000805b60005481101561111b57600060018281548110151561104b57fe5b6000918252602080832090910154600160a060020a0316808352600280835260409384902060040180548551601f60001960018416156101000201909216939093049081018590048502830185019095528482529194506111049390928301828280156110f95780601f106110ce576101008083540402835291602001916110f9565b820191906000526020600020905b8154815290600101906020018083116110dc57829003601f168201915b50505050508561175a565b156111125791506110279050565b50600101611030565b50600092915050565b600180548290811061113257fe5b600091825260209091200154600160a060020a0316905081565b6002602081815260009283526040928390208054600180830180548751601f60001994831615610100029490940190911696909604918201859004850286018501909652808552600160a060020a03909116949193928301828280156111f35780601f106111c8576101008083540402835291602001916111f3565b820191906000526020600020905b8154815290600101906020018083116111d657829003601f168201915b50505060028085018054604080516020601f60001961010060018716150201909416959095049283018590048502810185019091528181529596959450909250908301828280156112855780601f1061125a57610100808354040283529160200191611285565b820191906000526020600020905b81548152906001019060200180831161126857829003601f168201915b5050505060038301805460408051602060026001851615610100026000190190941693909304601f81018490048402820184019092528181529495949350908301828280156113155780601f106112ea57610100808354040283529160200191611315565b820191906000526020600020905b8154815290600101906020018083116112f857829003601f168201915b5050505060048301805460408051602060026001851615610100026000190190941693909304601f81018490048402820184019092528181529495949350908301828280156113a55780601f1061137a576101008083540402835291602001916113a5565b820191906000526020600020905b81548152906001019060200180831161138857829003601f168201915b5050505060058301805460408051602060026001851615610100026000190190941693909304601f81018490048402820184019092528181529495949350908301828280156114355780601f1061140a57610100808354040283529160200191611435565b820191906000526020600020905b81548152906001019060200180831161141857829003601f168201915b5050505060068301805460408051602060026001851615610100026000190190941693909304601f81018490048402820184019092528181529495949350908301828280156114c55780601f1061149a576101008083540402835291602001916114c5565b820191906000526020600020905b8154815290600101906020018083116114a857829003601f168201915b5050505050905087565b7ffd58fbf8409d07ce4aa41e46916c18604c47e16519319df2076ca14cc6122c5d33826040518083600160a060020a0316600160a060020a0316815260200180602001828103825283818151815260200191508051906020019080838360005b8381101561154757818101518382015260200161152f565b50505050905090810190601f1680156115745780820380516001836020036101000a031916815260200191505b50935050505060405180910390a13360009081526002602090815260409091208251610e5d92600690920191840190611ca3565b7f31c3b24a02ac2e14dcfca01ab3109b57c0aab3af8cad738674fc2a272fb59faa33826040518083600160a060020a0316600160a060020a0316815260200180602001828103825283818151815260200191508051906020019080838360005b83811015611620578181015183820152602001611608565b50505050905090810190601f16801561164d5780820380516001836020036101000a031916815260200191505b50935050505060405180910390a13360009081526002602090815260409091208251610e5d92600490920191840190611ca3565b7f9cf9111af77b4bc6e91a208b1c86ee37141c634a45199e4cfc571e5294888d1c33826040518083600160a060020a0316600160a060020a0316815260200180602001828103825283818151815260200191508051906020019080838360005b838110156116f95781810151838201526020016116e1565b50505050905090810190601f1680156117265780820380516001836020036101000a031916815260200191505b50935050505060405180910390a13360009081526002602081815260409092208351610e5d93919092019190840190611ca3565b6000816040516020018082805190602001908083835b6020831061178f5780518252601f199092019160209182019101611770565b6001836020036101000a03801982511681845116808217855250505050505090500191505060405160208183030381529060405280519060200120836040516020018082805190602001908083835b602083106117fd5780518252601f1990920191602091820191016117de565b6001836020036101000a0380198251168184511680821785525050505050509050019150506040516020818303038152906040528051906020012014905092915050565b60005481565b600354600160a060020a031681565b60005b6000548110156118d657600060018281548110151561187457fe5b600091825260209091200154600160a060020a03169050338114156118cd576040805183815290517fec78315fc9f306176b3bf3c3ce63de32e3aa1d148ec2e2e93257e3c98f2d82949181900360200190a15050611c9c565b50600101611859565b507f8eb0c16d1c8d18dadff903f5dcc64c93dee72f69f723e2324212cef3a77747d23386868686866040518087600160a060020a0316600160a060020a03168152602001806020018060200180602001806020018060200186810386528b818151815260200191508051906020019080838360005b8381101561196357818101518382015260200161194b565b50505050905090810190601f1680156119905780820380516001836020036101000a031916815260200191505b5086810385528a5181528a516020918201918c019080838360005b838110156119c35781810151838201526020016119ab565b50505050905090810190601f1680156119f05780820380516001836020036101000a031916815260200191505b5086810384528951815289516020918201918b019080838360005b83811015611a23578181015183820152602001611a0b565b50505050905090810190601f168015611a505780820380516001836020036101000a031916815260200191505b5086810383528851815288516020918201918a019080838360005b83811015611a83578181015183820152602001611a6b565b50505050905090810190601f168015611ab05780820380516001836020036101000a031916815260200191505b50868103825287518152875160209182019189019080838360005b83811015611ae3578181015183820152602001611acb565b50505050905090810190601f168015611b105780820380516001836020036101000a031916815260200191505b509b50505050505050505050505060405180910390a16040805160e081018252338082526020808301898152838501899052606084018890526080840187905260a0840186905284518083018652600080825260c086019190915292835260028252939091208251815473ffffffffffffffffffffffffffffffffffffffff1916600160a060020a0390911617815592518051929392611bb69260018501920190611ca3565b5060408201518051611bd2916002840191602090910190611ca3565b5060608201518051611bee916003840191602090910190611ca3565b5060808201518051611c0a916004840191602090910190611ca3565b5060a08201518051611c26916005840191602090910190611ca3565b5060c08201518051611c42916006840191602090910190611ca3565b505060018054808201825560008281527fb10e2d527612073b26eecdfd717e6a320cf44b4afac2b0732d9fcbe2b7fa0cf6909101805473ffffffffffffffffffffffffffffffffffffffff19163317905580549091019055505b5050505050565b828054600181600116156101000203166002900490600052602060002090601f016020900481019282601f10611ce457805160ff1916838001178555611d11565b82800160010185558215611d11579182015b82811115611d11578251825591602001919060010190611cf6565b50611d1d929150611d21565b5090565b610d8191905b80821115611d1d5760008155600101611d2756fea165627a7a72305820350b3c4f7a7962f42f8bffea22c75a0bc21c0948a01812ef219e0bbe64efa5410029",
  "source": "pragma solidity ^0.5.0;\n\ncontract LastWillManager {\n\n  struct Testamento{\n    address direccion;\n    string nombre; // Nombre del propietario del contrato\n    string apellido1; // Primer apellido del propietario del contrato\n    string apellido2; // Segundo apellido del propietario del contrato\n    string dni; // DNI del propietario del contrato\n    string passwordHash; // Hash de la contrasea del propietario del contrato\n    string ipfsHash; // Hash IPFS del contrato\n  }\n\n  uint public nTestamentos;\n\n  address[] public testamentosDirs;\n\n  mapping (address => Testamento) public testamentos;\n\n  address public superusuario;\n\n  // EVENTOS\n\n  event TestamentoCreado(\n    address direccion,\n    string nombre,\n    string apellido1,\n    string apellido2,\n    string dni,\n    string passwordHash\n  );\n\n  event DireccionSuperusuario(address superusuario);\n\n  event NombreCambiado(address direccion, string nombre);\n\n  event Apellido1Cambiado(address direccion, string apellido1);\n\n  event Apellido2Cambiado(address direccion, string apellido2);\n\n  event DNICambiado(address direccion, string dni);\n\n  event IPFSHashCambiado(address direccion, string ipfsHash);\n\n  event TestamentoYaExistente(uint posicion);\n\n  /***** FUNCIONES *****/\n\n  constructor() public{\n    superusuario = msg.sender;\n    emit DireccionSuperusuario(superusuario);\n  }\n\n  function nuevoTestamento(string memory _nom, string memory _apell1, string memory _apell2, string memory _dni, string memory _pwHash) public {\n    for(uint i = 0; i<nTestamentos;i++){\n      address aux = testamentosDirs[i];\n      if(aux == msg.sender){\n        emit TestamentoYaExistente(i);\n        return;\n      }\n    }\n    emit TestamentoCreado(msg.sender,_nom, _apell1, _apell2, _dni, _pwHash);\n    testamentos[msg.sender] = Testamento(msg.sender, _nom, _apell1, _apell2, _dni, _pwHash, \"\");\n    testamentosDirs.push(msg.sender);\n    //identificador++;\n    nTestamentos++;\n  }\n\n  // Es view porque toma datos del estado del contrato. Al ser view, no se pueden emitir eventos\n  function isRegistrado() public view returns (bool){\n    for(uint i = 0; i<nTestamentos;i++){\n      if(msg.sender == testamentosDirs[i]){\n        return true;\n      }\n    }\n    return false;\n  }\n\n  /*\n  Es view porque toma datos del estado del contrato. Al ser view, no se pueden emitir eventos\n  Si el DNI y el hash son errneos, se devuelve -3\n  Si el DNI es incorrecto pero el hash es correcto, se devuelve -2\n  Si el DNI es correcto pero el hash es incorrecto, se devuelve -1\n  Si el DNI y el hash son correctos, se devuelve la posicin del contrato\n  */\n  function buscarTestamento(string memory _dni) public view returns (address){\n    for(uint i = 0; i<nTestamentos; i++){\n      address aux = testamentosDirs[i];\n      if ( compararStrings(testamentos[aux].dni, _dni)){\n        return aux;\n      }\n    }\n    return address(0);\n  }\n\n  // Es view porque toma datos del estado del contrato. Al ser view, no se pueden emitir eventos\n  function autenticar(string memory _pwHash) public view returns (bool){\n    for(uint i = 0; i<nTestamentos; i++){\n      if (msg.sender == testamentosDirs[i]){\n        return compararStrings(testamentos[msg.sender].passwordHash, _pwHash);\n      }\n    }\n  }\n\n  function cambiarNombre(string memory _nuevo) public{\n    emit NombreCambiado(msg.sender, _nuevo);\n    testamentos[msg.sender].nombre = _nuevo;\n  }\n\n  function cambiarApellido1(string memory _nuevo) public{\n    emit Apellido1Cambiado(msg.sender, _nuevo);\n    testamentos[msg.sender].apellido1 = _nuevo;\n  }\n\n  function cambiarApellido2(string memory _nuevo) public{\n    emit Apellido2Cambiado(msg.sender, _nuevo);\n    testamentos[msg.sender].apellido2 = _nuevo;\n  }\n\n  function cambiarDNI(string memory _nuevo) public{\n    emit DNICambiado(msg.sender, _nuevo);\n    testamentos[msg.sender].dni = _nuevo;\n  }\n\n  function cambiarIPFSHash(string memory _nuevo) public{\n    emit IPFSHashCambiado(msg.sender, _nuevo);\n    testamentos[msg.sender].ipfsHash = _nuevo;\n  }\n\n  // Es puro porque no toma datos del estado del contrato\n  function compararStrings(string memory _s1, string memory _s2) public pure returns (bool){\n    return keccak256(abi.encodePacked(_s1)) == keccak256(abi.encodePacked(_s2));\n  }\n\n}",
  "sourcePath": "/home/hhl/tfg/contracts/LastWillManager.sol",
  "compiler": {
    "name": "solc",
    "version": "0.5.0+commit.1d4f565a.Emscripten.clang"
  },
  "schemaVersion": "3.0.2",
  "updatedAt": "2019-05-15T10:16:55.930Z",
  "devdoc": {
    "methods": {}
  },
  "userdoc": {
    "methods": {
      "constructor": "*** FUNCIONES ****"
    }
  }
}