{
  "contractName": "TFG",
  "abi": [
    {
      "constant": true,
      "inputs": [
        {
          "name": "",
          "type": "uint256"
        }
      ],
      "name": "contratosDirs",
      "outputs": [
        {
          "name": "",
          "type": "address"
        }
      ],
      "payable": false,
      "stateMutability": "view",
      "type": "function",
      "signature": "0x222f6ba3"
    },
    {
      "constant": true,
      "inputs": [],
      "name": "nContratos",
      "outputs": [
        {
          "name": "",
          "type": "uint256"
        }
      ],
      "payable": false,
      "stateMutability": "view",
      "type": "function",
      "signature": "0x7ebe69e7"
    },
    {
      "constant": true,
      "inputs": [],
      "name": "creador",
      "outputs": [
        {
          "name": "",
          "type": "address"
        }
      ],
      "payable": false,
      "stateMutability": "view",
      "type": "function",
      "signature": "0x92ebdcd2"
    },
    {
      "constant": true,
      "inputs": [
        {
          "name": "",
          "type": "address"
        }
      ],
      "name": "contratos",
      "outputs": [
        {
          "name": "direccion",
          "type": "address"
        },
        {
          "name": "nombre",
          "type": "string"
        },
        {
          "name": "apellido1",
          "type": "string"
        },
        {
          "name": "apellido2",
          "type": "string"
        },
        {
          "name": "dni",
          "type": "string"
        },
        {
          "name": "passwordHash",
          "type": "string"
        },
        {
          "name": "ipfsHash",
          "type": "string"
        }
      ],
      "payable": false,
      "stateMutability": "view",
      "type": "function",
      "signature": "0xa283ede5"
    },
    {
      "inputs": [],
      "payable": false,
      "stateMutability": "nonpayable",
      "type": "constructor",
      "signature": "constructor"
    },
    {
      "anonymous": false,
      "inputs": [
        {
          "indexed": false,
          "name": "direccion",
          "type": "address"
        },
        {
          "indexed": false,
          "name": "nombre",
          "type": "string"
        },
        {
          "indexed": false,
          "name": "apellido1",
          "type": "string"
        },
        {
          "indexed": false,
          "name": "apellido2",
          "type": "string"
        },
        {
          "indexed": false,
          "name": "dni",
          "type": "string"
        },
        {
          "indexed": false,
          "name": "passwordHash",
          "type": "string"
        }
      ],
      "name": "ContratoCreado",
      "type": "event",
      "signature": "0x88da325f1a933f5ca6aa7373209fbd62a713cc7b7b7c796cb26968bc3945cc53"
    },
    {
      "anonymous": false,
      "inputs": [
        {
          "indexed": false,
          "name": "creador",
          "type": "address"
        }
      ],
      "name": "DireccionCreador",
      "type": "event",
      "signature": "0xcd73f44bf173f45621194ec11ca31cb2140b15a262004d92f005c96e3bcfa37c"
    },
    {
      "anonymous": false,
      "inputs": [
        {
          "indexed": false,
          "name": "direccion",
          "type": "address"
        },
        {
          "indexed": false,
          "name": "nombre",
          "type": "string"
        }
      ],
      "name": "NombreCambiado",
      "type": "event",
      "signature": "0x42f281e2f8ac26786d8864be40b4e252061c8a8c54fff0abe449e702256001b6"
    },
    {
      "anonymous": false,
      "inputs": [
        {
          "indexed": false,
          "name": "direccion",
          "type": "address"
        },
        {
          "indexed": false,
          "name": "apellido1",
          "type": "string"
        }
      ],
      "name": "Apellido1Cambiado",
      "type": "event",
      "signature": "0x9cf9111af77b4bc6e91a208b1c86ee37141c634a45199e4cfc571e5294888d1c"
    },
    {
      "anonymous": false,
      "inputs": [
        {
          "indexed": false,
          "name": "direccion",
          "type": "address"
        },
        {
          "indexed": false,
          "name": "apellido2",
          "type": "string"
        }
      ],
      "name": "Apellido2Cambiado",
      "type": "event",
      "signature": "0x964ccd2829dee52d493ac495d4531e68ef224a5348f36216e17e0fa36db2e4c8"
    },
    {
      "anonymous": false,
      "inputs": [
        {
          "indexed": false,
          "name": "direccion",
          "type": "address"
        },
        {
          "indexed": false,
          "name": "dni",
          "type": "string"
        }
      ],
      "name": "DNICambiado",
      "type": "event",
      "signature": "0x31c3b24a02ac2e14dcfca01ab3109b57c0aab3af8cad738674fc2a272fb59faa"
    },
    {
      "anonymous": false,
      "inputs": [
        {
          "indexed": false,
          "name": "direccion",
          "type": "address"
        },
        {
          "indexed": false,
          "name": "ipfsHash",
          "type": "string"
        }
      ],
      "name": "IPFSHashCambiado",
      "type": "event",
      "signature": "0xfd58fbf8409d07ce4aa41e46916c18604c47e16519319df2076ca14cc6122c5d"
    },
    {
      "anonymous": false,
      "inputs": [
        {
          "indexed": false,
          "name": "posicion",
          "type": "uint256"
        }
      ],
      "name": "ContratoYaExistente",
      "type": "event",
      "signature": "0xee9dc1ccd41a093154b125b5dd827c2d6a86a611d89565436dbed702c72143d9"
    },
    {
      "constant": false,
      "inputs": [
        {
          "name": "_nombre",
          "type": "string"
        },
        {
          "name": "_apell1",
          "type": "string"
        },
        {
          "name": "_apell2",
          "type": "string"
        },
        {
          "name": "_dni",
          "type": "string"
        },
        {
          "name": "_pwHash",
          "type": "string"
        }
      ],
      "name": "nuevoContrato",
      "outputs": [],
      "payable": false,
      "stateMutability": "nonpayable",
      "type": "function",
      "signature": "0x93938ee6"
    },
    {
      "constant": true,
      "inputs": [],
      "name": "isRegistrado",
      "outputs": [
        {
          "name": "",
          "type": "bool"
        }
      ],
      "payable": false,
      "stateMutability": "view",
      "type": "function",
      "signature": "0x06ece0c0"
    },
    {
      "constant": true,
      "inputs": [
        {
          "name": "_dni",
          "type": "string"
        }
      ],
      "name": "buscarContrato",
      "outputs": [
        {
          "name": "",
          "type": "address"
        }
      ],
      "payable": false,
      "stateMutability": "view",
      "type": "function",
      "signature": "0xdeefd404"
    },
    {
      "constant": true,
      "inputs": [
        {
          "name": "_pwHash",
          "type": "string"
        }
      ],
      "name": "autenticar",
      "outputs": [
        {
          "name": "",
          "type": "bool"
        }
      ],
      "payable": false,
      "stateMutability": "view",
      "type": "function",
      "signature": "0x2ef810db"
    },
    {
      "constant": false,
      "inputs": [
        {
          "name": "_nuevo",
          "type": "string"
        }
      ],
      "name": "cambiarNombre",
      "outputs": [],
      "payable": false,
      "stateMutability": "nonpayable",
      "type": "function",
      "signature": "0x1dd45606"
    },
    {
      "constant": false,
      "inputs": [
        {
          "name": "_nuevo",
          "type": "string"
        }
      ],
      "name": "cambiarApellido1",
      "outputs": [],
      "payable": false,
      "stateMutability": "nonpayable",
      "type": "function",
      "signature": "0x78081bc8"
    },
    {
      "constant": false,
      "inputs": [
        {
          "name": "_nuevo",
          "type": "string"
        }
      ],
      "name": "cambiarApellido2",
      "outputs": [],
      "payable": false,
      "stateMutability": "nonpayable",
      "type": "function",
      "signature": "0x0934bcd8"
    },
    {
      "constant": false,
      "inputs": [
        {
          "name": "_nuevo",
          "type": "string"
        }
      ],
      "name": "cambiarDNI",
      "outputs": [],
      "payable": false,
      "stateMutability": "nonpayable",
      "type": "function",
      "signature": "0x67138706"
    },
    {
      "constant": false,
      "inputs": [
        {
          "name": "_nuevo",
          "type": "string"
        }
      ],
      "name": "cambiarIPFSHash",
      "outputs": [],
      "payable": false,
      "stateMutability": "nonpayable",
      "type": "function",
      "signature": "0x4cce06d3"
    },
    {
      "constant": true,
      "inputs": [
        {
          "name": "_s1",
          "type": "string"
        },
        {
          "name": "_s2",
          "type": "string"
        }
      ],
      "name": "compararStrings",
      "outputs": [
        {
          "name": "",
          "type": "bool"
        }
      ],
      "payable": false,
      "stateMutability": "pure",
      "type": "function",
      "signature": "0x97ea2878"
    }
  ],
  "bytecode": "0x608060405234801561001057600080fd5b5060038054600160a060020a03191633179081905560408051600160a060020a03929092168252517fcd73f44bf173f45621194ec11ca31cb2140b15a262004d92f005c96e3bcfa37c9181900360200190a1611d67806100716000396000f3fe6080604052600436106100cf5763ffffffff7c010000000000000000000000000000000000000000000000000000000060003504166306ece0c081146100d45780630934bcd8146100fd5780631dd45606146101b2578063222f6ba3146102655780632ef810db146102ab5780634cce06d31461035e578063671387061461041157806378081bc8146104c45780637ebe69e71461057757806392ebdcd21461059e57806393938ee6146105b357806397ea287814610882578063a283ede5146109bc578063deefd40414610c7e575b600080fd5b3480156100e057600080fd5b506100e9610d31565b604080519115158252519081900360200190f35b34801561010957600080fd5b506101b06004803603602081101561012057600080fd5b81019060208101813564010000000081111561013b57600080fd5b82018360208201111561014d57600080fd5b8035906020019184600183028401116401000000008311171561016f57600080fd5b91908080601f016020809104026020016040519081016040528093929190818152602001838380828437600092019190915250929550610d84945050505050565b005b3480156101be57600080fd5b506101b0600480360360208110156101d557600080fd5b8101906020810181356401000000008111156101f057600080fd5b82018360208201111561020257600080fd5b8035906020019184600183028401116401000000008311171561022457600080fd5b91908080601f016020809104026020016040519081016040528093929190818152602001838380828437600092019190915250929550610e61945050505050565b34801561027157600080fd5b5061028f6004803603602081101561028857600080fd5b5035610f3a565b60408051600160a060020a039092168252519081900360200190f35b3480156102b757600080fd5b506100e9600480360360208110156102ce57600080fd5b8101906020810181356401000000008111156102e957600080fd5b8201836020820111156102fb57600080fd5b8035906020019184600183028401116401000000008311171561031d57600080fd5b91908080601f016020809104026020016040519081016040528093929190818152602001838380828437600092019190915250929550610f62945050505050565b34801561036a57600080fd5b506101b06004803603602081101561038157600080fd5b81019060208101813564010000000081111561039c57600080fd5b8201836020820111156103ae57600080fd5b803590602001918460018302840111640100000000831117156103d057600080fd5b91908080601f016020809104026020016040519081016040528093929190818152602001838380828437600092019190915250929550611054945050505050565b34801561041d57600080fd5b506101b06004803603602081101561043457600080fd5b81019060208101813564010000000081111561044f57600080fd5b82018360208201111561046157600080fd5b8035906020019184600183028401116401000000008311171561048357600080fd5b91908080601f01602080910402602001604051908101604052809392919081815260200183838082843760009201919091525092955061112d945050505050565b3480156104d057600080fd5b506101b0600480360360208110156104e757600080fd5b81019060208101813564010000000081111561050257600080fd5b82018360208201111561051457600080fd5b8035906020019184600183028401116401000000008311171561053657600080fd5b91908080601f016020809104026020016040519081016040528093929190818152602001838380828437600092019190915250929550611206945050505050565b34801561058357600080fd5b5061058c6112df565b60408051918252519081900360200190f35b3480156105aa57600080fd5b5061028f6112e5565b3480156105bf57600080fd5b506101b0600480360360a08110156105d657600080fd5b8101906020810181356401000000008111156105f157600080fd5b82018360208201111561060357600080fd5b8035906020019184600183028401116401000000008311171561062557600080fd5b91908080601f016020809104026020016040519081016040528093929190818152602001838380828437600092019190915250929594936020810193503591505064010000000081111561067857600080fd5b82018360208201111561068a57600080fd5b803590602001918460018302840111640100000000831117156106ac57600080fd5b91908080601f01602080910402602001604051908101604052809392919081815260200183838082843760009201919091525092959493602081019350359150506401000000008111156106ff57600080fd5b82018360208201111561071157600080fd5b8035906020019184600183028401116401000000008311171561073357600080fd5b91908080601f016020809104026020016040519081016040528093929190818152602001838380828437600092019190915250929594936020810193503591505064010000000081111561078657600080fd5b82018360208201111561079857600080fd5b803590602001918460018302840111640100000000831117156107ba57600080fd5b91908080601f016020809104026020016040519081016040528093929190818152602001838380828437600092019190915250929594936020810193503591505064010000000081111561080d57600080fd5b82018360208201111561081f57600080fd5b8035906020019184600183028401116401000000008311171561084157600080fd5b91908080601f0160208091040260200160405190810160405280939291908181526020018383808284376000920191909152509295506112f4945050505050565b34801561088e57600080fd5b506100e9600480360360408110156108a557600080fd5b8101906020810181356401000000008111156108c057600080fd5b8201836020820111156108d257600080fd5b803590602001918460018302840111640100000000831117156108f457600080fd5b91908080601f016020809104026020016040519081016040528093929190818152602001838380828437600092019190915250929594936020810193503591505064010000000081111561094757600080fd5b82018360208201111561095957600080fd5b8035906020019184600183028401116401000000008311171561097b57600080fd5b91908080601f016020809104026020016040519081016040528093929190818152602001838380828437600092019190915250929550611741945050505050565b3480156109c857600080fd5b506109ef600480360360208110156109df57600080fd5b5035600160a060020a0316611828565b6040518088600160a060020a0316600160a060020a0316815260200180602001806020018060200180602001806020018060200187810387528d818151815260200191508051906020019080838360005b83811015610a58578181015183820152602001610a40565b50505050905090810190601f168015610a855780820380516001836020036101000a031916815260200191505b5087810386528c5181528c516020918201918e019080838360005b83811015610ab8578181015183820152602001610aa0565b50505050905090810190601f168015610ae55780820380516001836020036101000a031916815260200191505b5087810385528b5181528b516020918201918d019080838360005b83811015610b18578181015183820152602001610b00565b50505050905090810190601f168015610b455780820380516001836020036101000a031916815260200191505b5087810384528a5181528a516020918201918c019080838360005b83811015610b78578181015183820152602001610b60565b50505050905090810190601f168015610ba55780820380516001836020036101000a031916815260200191505b5087810383528951815289516020918201918b019080838360005b83811015610bd8578181015183820152602001610bc0565b50505050905090810190601f168015610c055780820380516001836020036101000a031916815260200191505b5087810382528851815288516020918201918a019080838360005b83811015610c38578181015183820152602001610c20565b50505050905090810190601f168015610c655780820380516001836020036101000a031916815260200191505b509d505050505050505050505050505060405180910390f35b348015610c8a57600080fd5b5061028f60048036036020811015610ca157600080fd5b810190602081018135640100000000811115610cbc57600080fd5b820183602082011115610cce57600080fd5b80359060200191846001830284011164010000000083111715610cf057600080fd5b91908080601f016020809104026020016040519081016040528093929190818152602001838380828437600092019190915250929550611bab945050505050565b6000805b600054811015610d7b576001805482908110610d4d57fe5b600091825260209091200154600160a060020a0316331415610d73576001915050610d81565b600101610d35565b50600090505b90565b7f964ccd2829dee52d493ac495d4531e68ef224a5348f36216e17e0fa36db2e4c833826040518083600160a060020a0316600160a060020a0316815260200180602001828103825283818151815260200191508051906020019080838360005b83811015610dfc578181015183820152602001610de4565b50505050905090810190601f168015610e295780820380516001836020036101000a031916815260200191505b50935050505060405180910390a13360009081526002602090815260409091208251610e5d92600390920191840190611ca3565b5050565b7f42f281e2f8ac26786d8864be40b4e252061c8a8c54fff0abe449e702256001b633826040518083600160a060020a0316600160a060020a0316815260200180602001828103825283818151815260200191508051906020019080838360005b83811015610ed9578181015183820152602001610ec1565b50505050905090810190601f168015610f065780820380516001836020036101000a031916815260200191505b50935050505060405180910390a13360009081526002602090815260409091208251610e5d92600190920191840190611ca3565b6001805482908110610f4857fe5b600091825260209091200154600160a060020a0316905081565b6000805b60005481101561104d576001805482908110610f7e57fe5b600091825260209091200154600160a060020a03163314156110455733600090815260026020818152604092839020600501805484516001821615610100026000190190911693909304601f810183900483028401830190945283835261103d9390918301828280156110325780601f1061100757610100808354040283529160200191611032565b820191906000526020600020905b81548152906001019060200180831161101557829003601f168201915b505050505084611741565b91505061104f565b600101610f66565b505b919050565b7ffd58fbf8409d07ce4aa41e46916c18604c47e16519319df2076ca14cc6122c5d33826040518083600160a060020a0316600160a060020a0316815260200180602001828103825283818151815260200191508051906020019080838360005b838110156110cc5781810151838201526020016110b4565b50505050905090810190601f1680156110f95780820380516001836020036101000a031916815260200191505b50935050505060405180910390a13360009081526002602090815260409091208251610e5d92600690920191840190611ca3565b7f31c3b24a02ac2e14dcfca01ab3109b57c0aab3af8cad738674fc2a272fb59faa33826040518083600160a060020a0316600160a060020a0316815260200180602001828103825283818151815260200191508051906020019080838360005b838110156111a557818101518382015260200161118d565b50505050905090810190601f1680156111d25780820380516001836020036101000a031916815260200191505b50935050505060405180910390a13360009081526002602090815260409091208251610e5d92600490920191840190611ca3565b7f9cf9111af77b4bc6e91a208b1c86ee37141c634a45199e4cfc571e5294888d1c33826040518083600160a060020a0316600160a060020a0316815260200180602001828103825283818151815260200191508051906020019080838360005b8381101561127e578181015183820152602001611266565b50505050905090810190601f1680156112ab5780820380516001836020036101000a031916815260200191505b50935050505060405180910390a13360009081526002602081815260409092208351610e5d93919092019190840190611ca3565b60005481565b600354600160a060020a031681565b60005b60005481101561137457600060018281548110151561131257fe5b600091825260209091200154600160a060020a031690503381141561136b576040805183815290517fee9dc1ccd41a093154b125b5dd827c2d6a86a611d89565436dbed702c72143d99181900360200190a1505061173a565b506001016112f7565b507f88da325f1a933f5ca6aa7373209fbd62a713cc7b7b7c796cb26968bc3945cc533386868686866040518087600160a060020a0316600160a060020a03168152602001806020018060200180602001806020018060200186810386528b818151815260200191508051906020019080838360005b838110156114015781810151838201526020016113e9565b50505050905090810190601f16801561142e5780820380516001836020036101000a031916815260200191505b5086810385528a5181528a516020918201918c019080838360005b83811015611461578181015183820152602001611449565b50505050905090810190601f16801561148e5780820380516001836020036101000a031916815260200191505b5086810384528951815289516020918201918b019080838360005b838110156114c15781810151838201526020016114a9565b50505050905090810190601f1680156114ee5780820380516001836020036101000a031916815260200191505b5086810383528851815288516020918201918a019080838360005b83811015611521578181015183820152602001611509565b50505050905090810190601f16801561154e5780820380516001836020036101000a031916815260200191505b50868103825287518152875160209182019189019080838360005b83811015611581578181015183820152602001611569565b50505050905090810190601f1680156115ae5780820380516001836020036101000a031916815260200191505b509b50505050505050505050505060405180910390a16040805160e081018252338082526020808301898152838501899052606084018890526080840187905260a0840186905284518083018652600080825260c086019190915292835260028252939091208251815473ffffffffffffffffffffffffffffffffffffffff1916600160a060020a03909116178155925180519293926116549260018501920190611ca3565b5060408201518051611670916002840191602090910190611ca3565b506060820151805161168c916003840191602090910190611ca3565b50608082015180516116a8916004840191602090910190611ca3565b5060a082015180516116c4916005840191602090910190611ca3565b5060c082015180516116e0916006840191602090910190611ca3565b505060018054808201825560008281527fb10e2d527612073b26eecdfd717e6a320cf44b4afac2b0732d9fcbe2b7fa0cf6909101805473ffffffffffffffffffffffffffffffffffffffff19163317905580549091019055505b5050505050565b6000816040516020018082805190602001908083835b602083106117765780518252601f199092019160209182019101611757565b6001836020036101000a03801982511681845116808217855250505050505090500191505060405160208183030381529060405280519060200120836040516020018082805190602001908083835b602083106117e45780518252601f1990920191602091820191016117c5565b6001836020036101000a0380198251168184511680821785525050505050509050019150506040516020818303038152906040528051906020012014905092915050565b6002602081815260009283526040928390208054600180830180548751601f60001994831615610100029490940190911696909604918201859004850286018501909652808552600160a060020a03909116949193928301828280156118cf5780601f106118a4576101008083540402835291602001916118cf565b820191906000526020600020905b8154815290600101906020018083116118b257829003601f168201915b50505060028085018054604080516020601f60001961010060018716150201909416959095049283018590048502810185019091528181529596959450909250908301828280156119615780601f1061193657610100808354040283529160200191611961565b820191906000526020600020905b81548152906001019060200180831161194457829003601f168201915b5050505060038301805460408051602060026001851615610100026000190190941693909304601f81018490048402820184019092528181529495949350908301828280156119f15780601f106119c6576101008083540402835291602001916119f1565b820191906000526020600020905b8154815290600101906020018083116119d457829003601f168201915b5050505060048301805460408051602060026001851615610100026000190190941693909304601f8101849004840282018401909252818152949594935090830182828015611a815780601f10611a5657610100808354040283529160200191611a81565b820191906000526020600020905b815481529060010190602001808311611a6457829003601f168201915b5050505060058301805460408051602060026001851615610100026000190190941693909304601f8101849004840282018401909252818152949594935090830182828015611b115780601f10611ae657610100808354040283529160200191611b11565b820191906000526020600020905b815481529060010190602001808311611af457829003601f168201915b5050505060068301805460408051602060026001851615610100026000190190941693909304601f8101849004840282018401909252818152949594935090830182828015611ba15780601f10611b7657610100808354040283529160200191611ba1565b820191906000526020600020905b815481529060010190602001808311611b8457829003601f168201915b5050505050905087565b6000805b600054811015611c9a576000600182815481101515611bca57fe5b6000918252602080832090910154600160a060020a0316808352600280835260409384902060040180548551601f6000196001841615610100020190921693909304908101859004850283018501909552848252919450611c83939092830182828015611c785780601f10611c4d57610100808354040283529160200191611c78565b820191906000526020600020905b815481529060010190602001808311611c5b57829003601f168201915b505050505085611741565b15611c9157915061104f9050565b50600101611baf565b50600092915050565b828054600181600116156101000203166002900490600052602060002090601f016020900481019282601f10611ce457805160ff1916838001178555611d11565b82800160010185558215611d11579182015b82811115611d11578251825591602001919060010190611cf6565b50611d1d929150611d21565b5090565b610d8191905b80821115611d1d5760008155600101611d2756fea165627a7a72305820c8543b04a0f4fb1d7eb87470da735cd5a700a0ff02c6081885f7f0305737bc1a0029",
  "source": "pragma solidity ^0.5.0;\n\ncontract TFG {\n\n  struct Contrato{\n    //uint id; // Identificador del contrato\n    address direccion;\n    string nombre; // Nombre del propietario del contrato\n    string apellido1; // Primer apellido del propietario del contrato\n    string apellido2; // Segundo apellido del propietario del contrato\n    string dni; // DNI del propietario del contrato\n    string passwordHash; // Hash de la contrasea del propietario del contrato\n    string ipfsHash; // Hash IPFS del contrato\n  }\n\n  //uint public identificador = 1;\n\n  uint public nContratos;\n\n  address[] public contratosDirs;\n\n  mapping (address => Contrato) public contratos;\n\n  address public creador;\n\n  /***** EVENTOS *****/\n\n  event ContratoCreado(\n    address direccion,\n    string nombre,\n    string apellido1,\n    string apellido2,\n    string dni,\n    string passwordHash\n  );\n\n  event DireccionCreador(address creador);\n\n  event NombreCambiado(address direccion, string nombre);\n\n  event Apellido1Cambiado(address direccion, string apellido1);\n\n  event Apellido2Cambiado(address direccion, string apellido2);\n\n  event DNICambiado(address direccion, string dni);\n\n  event IPFSHashCambiado(address direccion, string ipfsHash);\n\n  event ContratoYaExistente(uint posicion);\n\n  /***** FUNCIONES *****/\n\n  constructor() public{\n    creador = msg.sender;\n    emit DireccionCreador(creador);\n  }\n\n  function nuevoContrato(string memory _nombre, string memory _apell1, string memory _apell2, string memory _dni, string memory _pwHash) public {\n    for(uint i = 0; i<nContratos;i++){\n      address aux = contratosDirs[i];\n      if(aux == msg.sender){\n        emit ContratoYaExistente(i);\n        return;\n      }\n    }\n    emit ContratoCreado(msg.sender,_nombre, _apell1, _apell2, _dni, _pwHash);\n    contratos[msg.sender] = Contrato(msg.sender, _nombre, _apell1, _apell2, _dni, _pwHash, \"\");\n    contratosDirs.push(msg.sender);\n    //identificador++;\n    nContratos++;\n  }\n  // Es view porque toma datos del estado del contrato. Al ser view, no se pueden emitir eventos\n  function isRegistrado() public view returns (bool){\n    for(uint i = 0; i<nContratos;i++){\n      if(msg.sender == contratosDirs[i]){\n        return true;\n      }\n    }\n    return false;\n  }\n\n  /*\n  Es view porque toma datos del estado del contrato. Al ser view, no se pueden emitir eventos\n  Si el DNI y el hash son errneos, se devuelve -3\n  Si el DNI es incorrecto pero el hash es correcto, se devuelve -2\n  Si el DNI es correcto pero el hash es incorrecto, se devuelve -1\n  Si el DNI y el hash son correctos, se devuelve la posicin del contrato\n  */\n  function buscarContrato(string memory _dni) public view returns (address){\n    for(uint i = 0; i<nContratos; i++){\n      address aux = contratosDirs[i];\n      if ( compararStrings(contratos[aux].dni, _dni)){\n        return aux;\n      }\n    }\n    return address(0);\n  }\n\n  // Es view porque toma datos del estado del contrato. Al ser view, no se pueden emitir eventos\n  function autenticar(string memory _pwHash) public view returns (bool){\n    for(uint i = 0; i<nContratos; i++){\n      if (msg.sender == contratosDirs[i]){\n        return compararStrings(contratos[msg.sender].passwordHash, _pwHash);\n      }\n    }\n  }\n\n  function cambiarNombre(string memory _nuevo) public{\n    emit NombreCambiado(msg.sender, _nuevo);\n    contratos[msg.sender].nombre = _nuevo;\n  }\n\n  function cambiarApellido1(string memory _nuevo) public{\n    emit Apellido1Cambiado(msg.sender, _nuevo);\n    contratos[msg.sender].apellido1 = _nuevo;\n  }\n\n  function cambiarApellido2(string memory _nuevo) public{\n    emit Apellido2Cambiado(msg.sender, _nuevo);\n    contratos[msg.sender].apellido2 = _nuevo;\n  }\n\n  function cambiarDNI(string memory _nuevo) public{\n    emit DNICambiado(msg.sender, _nuevo);\n    contratos[msg.sender].dni = _nuevo;\n  }\n\n  function cambiarIPFSHash(string memory _nuevo) public{\n    emit IPFSHashCambiado(msg.sender, _nuevo);\n    contratos[msg.sender].ipfsHash = _nuevo;\n  }\n\n  // Es puro porque no toma datos del estado del contrato\n  function compararStrings(string memory _s1, string memory _s2) public pure returns (bool){\n    return keccak256(abi.encodePacked(_s1)) == keccak256(abi.encodePacked(_s2));\n  }\n\n}",
  "sourcePath": "/home/hhl/tfg/contracts/TFG.sol",
  "compiler": {
    "name": "solc",
    "version": "0.5.0+commit.1d4f565a.Emscripten.clang"
  },
  "schemaVersion": "3.0.2",
  "updatedAt": "2019-05-12T08:56:04.891Z",
  "devdoc": {
    "methods": {}
  },
  "userdoc": {
    "methods": {
      "constructor": "*** FUNCIONES ****"
    }
  }
}