{
  "contractName": "TFG",
  "abi": [
    {
      "constant": true,
      "inputs": [],
      "name": "identificador",
      "outputs": [
        {
          "name": "",
          "type": "uint256"
        }
      ],
      "payable": false,
      "stateMutability": "view",
      "type": "function",
      "signature": "0x35a41acc"
    },
    {
      "constant": true,
      "inputs": [
        {
          "name": "",
          "type": "uint256"
        }
      ],
      "name": "contratos",
      "outputs": [
        {
          "name": "id",
          "type": "uint256"
        },
        {
          "name": "nombre",
          "type": "string"
        },
        {
          "name": "apellido1",
          "type": "string"
        },
        {
          "name": "apellido2",
          "type": "string"
        },
        {
          "name": "dni",
          "type": "string"
        },
        {
          "name": "passwordHash",
          "type": "string"
        },
        {
          "name": "ipfsHash",
          "type": "string"
        }
      ],
      "payable": false,
      "stateMutability": "view",
      "type": "function",
      "signature": "0x3a00a1d1"
    },
    {
      "constant": true,
      "inputs": [],
      "name": "nContratos",
      "outputs": [
        {
          "name": "",
          "type": "uint256"
        }
      ],
      "payable": false,
      "stateMutability": "view",
      "type": "function",
      "signature": "0x7ebe69e7"
    },
    {
      "constant": true,
      "inputs": [
        {
          "name": "",
          "type": "uint256"
        }
      ],
      "name": "contratosKeys",
      "outputs": [
        {
          "name": "",
          "type": "uint256"
        }
      ],
      "payable": false,
      "stateMutability": "view",
      "type": "function",
      "signature": "0xde5007e5"
    },
    {
      "anonymous": false,
      "inputs": [
        {
          "indexed": false,
          "name": "id",
          "type": "uint256"
        },
        {
          "indexed": false,
          "name": "nombre",
          "type": "string"
        },
        {
          "indexed": false,
          "name": "apellido1",
          "type": "string"
        },
        {
          "indexed": false,
          "name": "apellido2",
          "type": "string"
        },
        {
          "indexed": false,
          "name": "dni",
          "type": "string"
        },
        {
          "indexed": false,
          "name": "passwordHash",
          "type": "string"
        }
      ],
      "name": "ContratoCreado",
      "type": "event",
      "signature": "0x07d31e061b904382ed76dff54e056b91d4731ab5909285de3f0a2a9a84676ce5"
    },
    {
      "anonymous": false,
      "inputs": [
        {
          "indexed": false,
          "name": "id",
          "type": "uint256"
        },
        {
          "indexed": false,
          "name": "nombre",
          "type": "string"
        }
      ],
      "name": "NombreCambiado",
      "type": "event",
      "signature": "0x507e40722ed3e9a41825b2160b2af9db7ca5f6237f8a941cfec6e3976719de40"
    },
    {
      "anonymous": false,
      "inputs": [
        {
          "indexed": false,
          "name": "id",
          "type": "uint256"
        },
        {
          "indexed": false,
          "name": "apellido1",
          "type": "string"
        }
      ],
      "name": "Apellido1Cambiado",
      "type": "event",
      "signature": "0x137c011e74006fc56d02f35c313fcb12998a414ff4010b2bd2038f5f987ffed2"
    },
    {
      "anonymous": false,
      "inputs": [
        {
          "indexed": false,
          "name": "id",
          "type": "uint256"
        },
        {
          "indexed": false,
          "name": "apellido2",
          "type": "string"
        }
      ],
      "name": "Apellido2Cambiado",
      "type": "event",
      "signature": "0x92ddaf11ad0ecb26a3a549fb97280f8ec5ed50cba2eef8f399a29fec8e5c6dd1"
    },
    {
      "anonymous": false,
      "inputs": [
        {
          "indexed": false,
          "name": "id",
          "type": "uint256"
        },
        {
          "indexed": false,
          "name": "dni",
          "type": "string"
        }
      ],
      "name": "DNICambiado",
      "type": "event",
      "signature": "0xdea81cdee024d27904beae6b8c2b84db4795ac5298ffbfb5b422262c8e211b98"
    },
    {
      "anonymous": false,
      "inputs": [
        {
          "indexed": false,
          "name": "id",
          "type": "uint256"
        },
        {
          "indexed": false,
          "name": "ipfsHash",
          "type": "string"
        }
      ],
      "name": "IPFSHashCambiado",
      "type": "event",
      "signature": "0xcb01836fbe044d6037e55ef695034f6d6e2b58c8cbc3d6b95f5f8cc4c043b73f"
    },
    {
      "constant": false,
      "inputs": [
        {
          "name": "_nombre",
          "type": "string"
        },
        {
          "name": "_apell1",
          "type": "string"
        },
        {
          "name": "_apell2",
          "type": "string"
        },
        {
          "name": "_dni",
          "type": "string"
        },
        {
          "name": "_pwHash",
          "type": "string"
        }
      ],
      "name": "nuevoContrato",
      "outputs": [],
      "payable": false,
      "stateMutability": "nonpayable",
      "type": "function",
      "signature": "0x93938ee6"
    },
    {
      "constant": true,
      "inputs": [
        {
          "name": "_dni",
          "type": "string"
        },
        {
          "name": "_pwHash",
          "type": "string"
        }
      ],
      "name": "buscarContrato",
      "outputs": [
        {
          "name": "",
          "type": "int256"
        }
      ],
      "payable": false,
      "stateMutability": "view",
      "type": "function",
      "signature": "0x7891c362"
    },
    {
      "constant": false,
      "inputs": [
        {
          "name": "_id",
          "type": "uint256"
        },
        {
          "name": "_nuevo",
          "type": "string"
        }
      ],
      "name": "cambiarNombre",
      "outputs": [],
      "payable": false,
      "stateMutability": "nonpayable",
      "type": "function",
      "signature": "0xe6290047"
    },
    {
      "constant": false,
      "inputs": [
        {
          "name": "_id",
          "type": "uint256"
        },
        {
          "name": "_nuevo",
          "type": "string"
        }
      ],
      "name": "cambiarApellido1",
      "outputs": [],
      "payable": false,
      "stateMutability": "nonpayable",
      "type": "function",
      "signature": "0x2a122b96"
    },
    {
      "constant": false,
      "inputs": [
        {
          "name": "_id",
          "type": "uint256"
        },
        {
          "name": "_nuevo",
          "type": "string"
        }
      ],
      "name": "cambiarApellido2",
      "outputs": [],
      "payable": false,
      "stateMutability": "nonpayable",
      "type": "function",
      "signature": "0xd2f0fc49"
    },
    {
      "constant": false,
      "inputs": [
        {
          "name": "_id",
          "type": "uint256"
        },
        {
          "name": "_nuevo",
          "type": "string"
        }
      ],
      "name": "cambiarDNI",
      "outputs": [],
      "payable": false,
      "stateMutability": "nonpayable",
      "type": "function",
      "signature": "0x5ad9e25f"
    },
    {
      "constant": false,
      "inputs": [
        {
          "name": "_id",
          "type": "uint256"
        },
        {
          "name": "_nuevo",
          "type": "string"
        }
      ],
      "name": "cambiarIPFSHash",
      "outputs": [],
      "payable": false,
      "stateMutability": "nonpayable",
      "type": "function",
      "signature": "0xd6802c0e"
    },
    {
      "constant": true,
      "inputs": [
        {
          "name": "_s1",
          "type": "string"
        },
        {
          "name": "_s2",
          "type": "string"
        }
      ],
      "name": "compararStrings",
      "outputs": [
        {
          "name": "",
          "type": "bool"
        }
      ],
      "payable": false,
      "stateMutability": "pure",
      "type": "function",
      "signature": "0x97ea2878"
    }
  ],
  "bytecode": "0x6080604052600160005534801561001557600080fd5b50611b7f806100256000396000f3fe6080604052600436106100b95763ffffffff7c01000000000000000000000000000000000000000000000000000000006000350416632a122b9681146100be57806335a41acc1461017a5780633a00a1d1146101a15780635ad9e25f146104485780637891c362146105025780637ebe69e71461063c57806393938ee61461065157806397ea287814610920578063d2f0fc4914610a6e578063d6802c0e14610b28578063de5007e514610be2578063e629004714610c0c575b600080fd5b3480156100ca57600080fd5b50610178600480360360408110156100e157600080fd5b8135919081019060408101602082013564010000000081111561010357600080fd5b82018360208201111561011557600080fd5b8035906020019184600183028401116401000000008311171561013757600080fd5b91908080601f016020809104026020016040519081016040528093929190818152602001838380828437600092019190915250929550610cc6945050505050565b005b34801561018657600080fd5b5061018f610d91565b60408051918252519081900360200190f35b3480156101ad57600080fd5b506101cb600480360360208110156101c457600080fd5b5035610d97565b6040518088815260200180602001806020018060200180602001806020018060200187810387528d818151815260200191508051906020019080838360005b8381101561022257818101518382015260200161020a565b50505050905090810190601f16801561024f5780820380516001836020036101000a031916815260200191505b5087810386528c5181528c516020918201918e019080838360005b8381101561028257818101518382015260200161026a565b50505050905090810190601f1680156102af5780820380516001836020036101000a031916815260200191505b5087810385528b5181528b516020918201918d019080838360005b838110156102e25781810151838201526020016102ca565b50505050905090810190601f16801561030f5780820380516001836020036101000a031916815260200191505b5087810384528a5181528a516020918201918c019080838360005b8381101561034257818101518382015260200161032a565b50505050905090810190601f16801561036f5780820380516001836020036101000a031916815260200191505b5087810383528951815289516020918201918b019080838360005b838110156103a257818101518382015260200161038a565b50505050905090810190601f1680156103cf5780820380516001836020036101000a031916815260200191505b5087810382528851815288516020918201918a019080838360005b838110156104025781810151838201526020016103ea565b50505050905090810190601f16801561042f5780820380516001836020036101000a031916815260200191505b509d505050505050505050505050505060405180910390f35b34801561045457600080fd5b506101786004803603604081101561046b57600080fd5b8135919081019060408101602082013564010000000081111561048d57600080fd5b82018360208201111561049f57600080fd5b803590602001918460018302840111640100000000831117156104c157600080fd5b91908080601f016020809104026020016040519081016040528093929190818152602001838380828437600092019190915250929550611110945050505050565b34801561050e57600080fd5b5061018f6004803603604081101561052557600080fd5b81019060208101813564010000000081111561054057600080fd5b82018360208201111561055257600080fd5b8035906020019184600183028401116401000000008311171561057457600080fd5b91908080601f01602080910402602001604051908101604052809392919081815260200183838082843760009201919091525092959493602081019350359150506401000000008111156105c757600080fd5b8201836020820111156105d957600080fd5b803590602001918460018302840111640100000000831117156105fb57600080fd5b91908080601f0160208091040260200160405190810160405280939291908181526020018383808284376000920191909152509295506111d6945050505050565b34801561064857600080fd5b5061018f6113dc565b34801561065d57600080fd5b50610178600480360360a081101561067457600080fd5b81019060208101813564010000000081111561068f57600080fd5b8201836020820111156106a157600080fd5b803590602001918460018302840111640100000000831117156106c357600080fd5b91908080601f016020809104026020016040519081016040528093929190818152602001838380828437600092019190915250929594936020810193503591505064010000000081111561071657600080fd5b82018360208201111561072857600080fd5b8035906020019184600183028401116401000000008311171561074a57600080fd5b91908080601f016020809104026020016040519081016040528093929190818152602001838380828437600092019190915250929594936020810193503591505064010000000081111561079d57600080fd5b8201836020820111156107af57600080fd5b803590602001918460018302840111640100000000831117156107d157600080fd5b91908080601f016020809104026020016040519081016040528093929190818152602001838380828437600092019190915250929594936020810193503591505064010000000081111561082457600080fd5b82018360208201111561083657600080fd5b8035906020019184600183028401116401000000008311171561085857600080fd5b91908080601f01602080910402602001604051908101604052809392919081815260200183838082843760009201919091525092959493602081019350359150506401000000008111156108ab57600080fd5b8201836020820111156108bd57600080fd5b803590602001918460018302840111640100000000831117156108df57600080fd5b91908080601f0160208091040260200160405190810160405280939291908181526020018383808284376000920191909152509295506113e2945050505050565b34801561092c57600080fd5b50610a5a6004803603604081101561094357600080fd5b81019060208101813564010000000081111561095e57600080fd5b82018360208201111561097057600080fd5b8035906020019184600183028401116401000000008311171561099257600080fd5b91908080601f01602080910402602001604051908101604052809392919081815260200183838082843760009201919091525092959493602081019350359150506401000000008111156109e557600080fd5b8201836020820111156109f757600080fd5b80359060200191846001830284011164010000000083111715610a1957600080fd5b91908080601f016020809104026020016040519081016040528093929190818152602001838380828437600092019190915250929550611764945050505050565b604080519115158252519081900360200190f35b348015610a7a57600080fd5b5061017860048036036040811015610a9157600080fd5b81359190810190604081016020820135640100000000811115610ab357600080fd5b820183602082011115610ac557600080fd5b80359060200191846001830284011164010000000083111715610ae757600080fd5b91908080601f01602080910402602001604051908101604052809392919081815260200183838082843760009201919091525092955061184b945050505050565b348015610b3457600080fd5b5061017860048036036040811015610b4b57600080fd5b81359190810190604081016020820135640100000000811115610b6d57600080fd5b820183602082011115610b7f57600080fd5b80359060200191846001830284011164010000000083111715610ba157600080fd5b91908080601f016020809104026020016040519081016040528093929190818152602001838380828437600092019190915250929550611911945050505050565b348015610bee57600080fd5b5061018f60048036036020811015610c0557600080fd5b50356119d7565b348015610c1857600080fd5b5061017860048036036040811015610c2f57600080fd5b81359190810190604081016020820135640100000000811115610c5157600080fd5b820183602082011115610c6357600080fd5b80359060200191846001830284011164010000000083111715610c8557600080fd5b91908080601f0160208091040260200160405190810160405280939291908181526020018383808284376000920191909152509295506119f6945050505050565b7f137c011e74006fc56d02f35c313fcb12998a414ff4010b2bd2038f5f987ffed282826040518083815260200180602001828103825283818151815260200191508051906020019080838360005b83811015610d2c578181015183820152602001610d14565b50505050905090810190601f168015610d595780820380516001836020036101000a031916815260200191505b50935050505060405180910390a160008281526003602090815260409091208251610d8c92600290920191840190611ab8565b505050565b60005481565b6003602090815260009182526040918290208054600180830180548651600293821615610100026000190190911692909204601f810186900486028301860190965285825291949293909290830182828015610e345780601f10610e0957610100808354040283529160200191610e34565b820191906000526020600020905b815481529060010190602001808311610e1757829003601f168201915b50505060028085018054604080516020601f6000196101006001871615020190941695909504928301859004850281018501909152818152959695945090925090830182828015610ec65780601f10610e9b57610100808354040283529160200191610ec6565b820191906000526020600020905b815481529060010190602001808311610ea957829003601f168201915b5050505060038301805460408051602060026001851615610100026000190190941693909304601f8101849004840282018401909252818152949594935090830182828015610f565780601f10610f2b57610100808354040283529160200191610f56565b820191906000526020600020905b815481529060010190602001808311610f3957829003601f168201915b5050505060048301805460408051602060026001851615610100026000190190941693909304601f8101849004840282018401909252818152949594935090830182828015610fe65780601f10610fbb57610100808354040283529160200191610fe6565b820191906000526020600020905b815481529060010190602001808311610fc957829003601f168201915b5050505060058301805460408051602060026001851615610100026000190190941693909304601f81018490048402820184019092528181529495949350908301828280156110765780601f1061104b57610100808354040283529160200191611076565b820191906000526020600020905b81548152906001019060200180831161105957829003601f168201915b5050505060068301805460408051602060026001851615610100026000190190941693909304601f81018490048402820184019092528181529495949350908301828280156111065780601f106110db57610100808354040283529160200191611106565b820191906000526020600020905b8154815290600101906020018083116110e957829003601f168201915b5050505050905087565b7fdea81cdee024d27904beae6b8c2b84db4795ac5298ffbfb5b422262c8e211b9882826040518083815260200180602001828103825283818151815260200191508051906020019080838360005b8381101561117657818101518382015260200161115e565b50505050905090810190601f1680156111a35780820380516001836020036101000a031916815260200191505b50935050505060405180910390a160008281526003602090815260409091208251610d8c92600490920191840190611ab8565b60008080808060015b60015481116112a55760008181526003602090815260409182902060040180548351601f6002600019610100600186161502019093169290920491820184900484028101840190945280845261128c93928301828280156112815780601f1061125657610100808354040283529160200191611281565b820191906000526020600020905b81548152906001019060200180831161126457829003601f168201915b505050505089611764565b1561129d57600194508093506112a5565b6001016111df565b5060015b600154811161136f5760008181526003602090815260409182902060050180548351601f60026000196101006001861615020190931692909204918201849004840281018401909452808452611356939283018282801561134b5780601f106113205761010080835404028352916020019161134b565b820191906000526020600020905b81548152906001019060200180831161132e57829003601f168201915b505050505088611764565b15611367576001915080925061136f565b6001016112a9565b5083801561137b575080155b1561138e576000199450505050506113d6565b808015611399575083155b156113ac576001199450505050506113d6565b81831480156113bb5750600083115b156113cc57829450505050506113d6565b6002199450505050505b92915050565b60015481565b7f07d31e061b904382ed76dff54e056b91d4731ab5909285de3f0a2a9a84676ce5600054868686868660405180878152602001806020018060200180602001806020018060200186810386528b818151815260200191508051906020019080838360005b8381101561145e578181015183820152602001611446565b50505050905090810190601f16801561148b5780820380516001836020036101000a031916815260200191505b5086810385528a5181528a516020918201918c019080838360005b838110156114be5781810151838201526020016114a6565b50505050905090810190601f1680156114eb5780820380516001836020036101000a031916815260200191505b5086810384528951815289516020918201918b019080838360005b8381101561151e578181015183820152602001611506565b50505050905090810190601f16801561154b5780820380516001836020036101000a031916815260200191505b5086810383528851815288516020918201918a019080838360005b8381101561157e578181015183820152602001611566565b50505050905090810190601f1680156115ab5780820380516001836020036101000a031916815260200191505b50868103825287518152875160209182019189019080838360005b838110156115de5781810151838201526020016115c6565b50505050905090810190601f16801561160b5780820380516001836020036101000a031916815260200191505b509b50505050505050505050505060405180910390a16040805160e0810182526000805480835260208084018a81528486018a9052606085018990526080850188905260a085018790528551808301875284815260c0860152918352600381529390912082518155905180519293919261168b9260018501920190611ab8565b50604082015180516116a7916002840191602090910190611ab8565b50606082015180516116c3916003840191602090910190611ab8565b50608082015180516116df916004840191602090910190611ab8565b5060a082015180516116fb916005840191602090910190611ab8565b5060c08201518051611717916006840191602090910190611ab8565b50506000805460028054600181810183559184527f405787fa12a823e0f2b7631cc41b3ba8828b3321ca811111fa75cd3aa3bb5ace01829055908101909155805481019055505050505050565b6000816040516020018082805190602001908083835b602083106117995780518252601f19909201916020918201910161177a565b6001836020036101000a03801982511681845116808217855250505050505090500191505060405160208183030381529060405280519060200120836040516020018082805190602001908083835b602083106118075780518252601f1990920191602091820191016117e8565b6001836020036101000a0380198251168184511680821785525050505050509050019150506040516020818303038152906040528051906020012014905092915050565b7f92ddaf11ad0ecb26a3a549fb97280f8ec5ed50cba2eef8f399a29fec8e5c6dd182826040518083815260200180602001828103825283818151815260200191508051906020019080838360005b838110156118b1578181015183820152602001611899565b50505050905090810190601f1680156118de5780820380516001836020036101000a031916815260200191505b50935050505060405180910390a160008281526003602081815260409092208351610d8c93919092019190840190611ab8565b7fcb01836fbe044d6037e55ef695034f6d6e2b58c8cbc3d6b95f5f8cc4c043b73f82826040518083815260200180602001828103825283818151815260200191508051906020019080838360005b8381101561197757818101518382015260200161195f565b50505050905090810190601f1680156119a45780820380516001836020036101000a031916815260200191505b50935050505060405180910390a160008281526003602090815260409091208251610d8c92600690920191840190611ab8565b60028054829081106119e557fe5b600091825260209091200154905081565b7f507e40722ed3e9a41825b2160b2af9db7ca5f6237f8a941cfec6e3976719de4082826040518083815260200180602001828103825283818151815260200191508051906020019080838360005b83811015611a5c578181015183820152602001611a44565b50505050905090810190601f168015611a895780820380516001836020036101000a031916815260200191505b50935050505060405180910390a160008281526003602090815260409091208251610d8c926001909201918401905b828054600181600116156101000203166002900490600052602060002090601f016020900481019282601f10611af957805160ff1916838001178555611b26565b82800160010185558215611b26579182015b82811115611b26578251825591602001919060010190611b0b565b50611b32929150611b36565b5090565b611b5091905b80821115611b325760008155600101611b3c565b9056fea165627a7a72305820010ff34f38c00eb406e612f072f5ddefd2e861538bb53c970c1b6f0ae46152e90029",
  "source": "pragma solidity ^0.5.0;\n\ncontract TFG {\n\n  struct Contrato{\n    uint id; // Identificador del contrato\n    string nombre; // Nombre del propietario del contrato\n    string apellido1; // Primer apellido del propietario del contrato\n    string apellido2; // Segundo apellido del propietario del contrato\n    string dni; // DNI del propietario del contrato\n    string passwordHash; // Hash de la contrasea del propietario del contrato\n    string ipfsHash; // Hash IPFS del contrato\n  }\n\n  uint public identificador = 1;\n\n  uint public nContratos;\n\n  uint[] public contratosKeys;\n\n  mapping (uint => Contrato) public contratos;\n\n  /***** EVENTOS *****/\n\n  event ContratoCreado(\n    uint id,\n    string nombre,\n    string apellido1,\n    string apellido2,\n    string dni,\n    string passwordHash\n  );\n\n  event NombreCambiado(uint id, string nombre);\n\n  event Apellido1Cambiado(uint id, string apellido1);\n\n  event Apellido2Cambiado(uint id, string apellido2);\n\n  event DNICambiado(uint id, string dni);\n\n  event IPFSHashCambiado(uint id, string ipfsHash);\n\n  /***** FUNCIONES *****/\n\n  function nuevoContrato(string memory _nombre, string memory _apell1, string memory _apell2, string memory _dni, string memory _pwHash) public {\n    emit ContratoCreado(identificador,_nombre, _apell1, _apell2, _dni, _pwHash);\n    contratos[identificador] = Contrato(identificador, _nombre, _apell1, _apell2, _dni, _pwHash, \"\");\n    contratosKeys.push(identificador);\n    identificador++;\n    nContratos++;\n  }\n\n  /*\n  Es view porque toma datos del estado del contrato. Al ser view, no se pueden emitir eventos\n  Si el DNI y el hash son errneos, se devuelve -3\n  Si el DNI es incorrecto pero el hash es correcto, se devuelve -2\n  Si el DNI es correcto pero el hash es incorrecto, se devuelve -1\n  Si el DNI y el hash son correctos, se devuelve la posicin del contrato\n  */\n  function  buscarContrato(string memory _dni, string memory _pwHash) public view returns (int){\n    bool dniCorrecto = false;\n    uint posDni = 0;\n    uint posPW = 0;\n    bool pwCorrecto = false;\n    for(uint i = 1; i<=nContratos;i++){\n      if(compararStrings(contratos[i].dni, _dni)){\n        dniCorrecto = true;\n        posDni = i;\n        break;\n      }\n    }\n    for(uint i = 1; i<=nContratos;i++){\n      if(compararStrings(contratos[i].passwordHash, _pwHash)){\n        pwCorrecto = true;\n        posPW = i;\n        break;\n      }\n    }\n    if(dniCorrecto&&!pwCorrecto){\n      return -1;\n    }\n    if(pwCorrecto&&!dniCorrecto){\n      return -2;\n    }\n    if(posDni == posPW && posDni > 0){\n      return int(posDni);\n    }\n    return -3;\n  }\n\n  function cambiarNombre(uint _id, string memory _nuevo) public{\n    emit NombreCambiado(_id, _nuevo);\n    contratos[_id].nombre = _nuevo;\n  }\n\n  function cambiarApellido1(uint _id, string memory _nuevo) public{\n    emit Apellido1Cambiado(_id, _nuevo);\n    contratos[_id].apellido1 = _nuevo;\n  }\n\n  function cambiarApellido2(uint _id, string memory _nuevo) public{\n    emit Apellido2Cambiado(_id, _nuevo);\n    contratos[_id].apellido2 = _nuevo;\n  }\n\n  function cambiarDNI(uint _id, string memory _nuevo) public{\n    emit DNICambiado(_id, _nuevo);\n    contratos[_id].dni = _nuevo;\n  }\n\n  function cambiarIPFSHash(uint _id, string memory _nuevo) public{\n    emit IPFSHashCambiado(_id, _nuevo);\n    contratos[_id].ipfsHash = _nuevo;\n  }\n\n  // Es puro porque no toma datos del estado del contrato\n  function compararStrings(string memory _s1, string memory _s2) public pure returns (bool){\n    return keccak256(abi.encodePacked(_s1)) == keccak256(abi.encodePacked(_s2));\n  }\n\n}",
  "sourcePath": "/home/hhl/tfg/contracts/TFG.sol",
  "compiler": {
    "name": "solc",
    "version": "0.5.0+commit.1d4f565a.Emscripten.clang"
  },
  "schemaVersion": "3.0.2",
  "updatedAt": "2019-05-03T17:38:43.458Z",
  "devdoc": {
    "methods": {}
  },
  "userdoc": {
    "methods": {
      "nuevoContrato(string,string,string,string,string)": {
        "notice": "*** FUNCIONES ****"
      }
    }
  }
}